{
  "_format": "hh-sol-artifact-1",
  "contractName": "AirBlock",
  "sourceName": "contracts/AirBlock.sol",
  "abi": [
    {
      "anonymous": false,
      "inputs": [
        {
          "indexed": true,
          "internalType": "uint256",
          "name": "bookingId",
          "type": "uint256"
        }
      ],
      "name": "CancelBooking",
      "type": "event"
    },
    {
      "anonymous": false,
      "inputs": [
        {
          "indexed": true,
          "internalType": "uint256",
          "name": "bookingId",
          "type": "uint256"
        }
      ],
      "name": "ConfirmBooking",
      "type": "event"
    },
    {
      "anonymous": false,
      "inputs": [
        {
          "indexed": true,
          "internalType": "uint256",
          "name": "bookingId",
          "type": "uint256"
        }
      ],
      "name": "ModifyBooking",
      "type": "event"
    },
    {
      "anonymous": false,
      "inputs": [
        {
          "indexed": true,
          "internalType": "uint256",
          "name": "propertyId",
          "type": "uint256"
        },
        {
          "indexed": true,
          "internalType": "uint256",
          "name": "bookingId",
          "type": "uint256"
        }
      ],
      "name": "NewBooking",
      "type": "event"
    },
    {
      "anonymous": false,
      "inputs": [
        {
          "indexed": true,
          "internalType": "uint256",
          "name": "propertyId",
          "type": "uint256"
        }
      ],
      "name": "NewProperty",
      "type": "event"
    },
    {
      "inputs": [],
      "name": "bookingId",
      "outputs": [
        {
          "internalType": "uint256",
          "name": "",
          "type": "uint256"
        }
      ],
      "stateMutability": "view",
      "type": "function"
    },
    {
      "inputs": [
        {
          "internalType": "uint256",
          "name": "",
          "type": "uint256"
        }
      ],
      "name": "bookings",
      "outputs": [
        {
          "internalType": "uint256",
          "name": "bookingId",
          "type": "uint256"
        },
        {
          "internalType": "uint256",
          "name": "propertyId",
          "type": "uint256"
        },
        {
          "internalType": "string",
          "name": "checkInDate",
          "type": "string"
        },
        {
          "internalType": "string",
          "name": "checkOutDate",
          "type": "string"
        },
        {
          "internalType": "uint256",
          "name": "checkInDay",
          "type": "uint256"
        },
        {
          "internalType": "uint256",
          "name": "checkOutDay",
          "type": "uint256"
        },
        {
          "internalType": "uint256",
          "name": "totalPrice",
          "type": "uint256"
        },
        {
          "internalType": "bool",
          "name": "isConfirmed",
          "type": "bool"
        },
        {
          "internalType": "bool",
          "name": "isDeleted",
          "type": "bool"
        },
        {
          "internalType": "address",
          "name": "renter",
          "type": "address"
        }
      ],
      "stateMutability": "view",
      "type": "function"
    },
    {
      "inputs": [
        {
          "internalType": "uint256",
          "name": "_bookingId",
          "type": "uint256"
        }
      ],
      "name": "confirmBooking",
      "outputs": [],
      "stateMutability": "payable",
      "type": "function"
    },
    {
      "inputs": [
        {
          "internalType": "uint256",
          "name": "_bookingId",
          "type": "uint256"
        }
      ],
      "name": "deleteBooking",
      "outputs": [],
      "stateMutability": "nonpayable",
      "type": "function"
    },
    {
      "inputs": [],
      "name": "getAllActiveProperties",
      "outputs": [
        {
          "components": [
            {
              "internalType": "uint256",
              "name": "id",
              "type": "uint256"
            },
            {
              "internalType": "string",
              "name": "name",
              "type": "string"
            },
            {
              "internalType": "string",
              "name": "description",
              "type": "string"
            },
            {
              "internalType": "string",
              "name": "location",
              "type": "string"
            },
            {
              "internalType": "string[]",
              "name": "images",
              "type": "string[]"
            },
            {
              "internalType": "bool",
              "name": "isActive",
              "type": "bool"
            },
            {
              "internalType": "uint256",
              "name": "price",
              "type": "uint256"
            },
            {
              "internalType": "string",
              "name": "currency",
              "type": "string"
            },
            {
              "internalType": "address",
              "name": "owner",
              "type": "address"
            },
            {
              "internalType": "bool[]",
              "name": "isBooked",
              "type": "bool[]"
            }
          ],
          "internalType": "struct AirBlock.Property[]",
          "name": "",
          "type": "tuple[]"
        }
      ],
      "stateMutability": "view",
      "type": "function"
    },
    {
      "inputs": [],
      "name": "getAllBookings",
      "outputs": [
        {
          "components": [
            {
              "internalType": "uint256",
              "name": "bookingId",
              "type": "uint256"
            },
            {
              "internalType": "uint256",
              "name": "propertyId",
              "type": "uint256"
            },
            {
              "internalType": "string",
              "name": "checkInDate",
              "type": "string"
            },
            {
              "internalType": "string",
              "name": "checkOutDate",
              "type": "string"
            },
            {
              "internalType": "uint256",
              "name": "checkInDay",
              "type": "uint256"
            },
            {
              "internalType": "uint256",
              "name": "checkOutDay",
              "type": "uint256"
            },
            {
              "internalType": "uint256",
              "name": "totalPrice",
              "type": "uint256"
            },
            {
              "internalType": "bool",
              "name": "isConfirmed",
              "type": "bool"
            },
            {
              "internalType": "bool",
              "name": "isDeleted",
              "type": "bool"
            },
            {
              "internalType": "address",
              "name": "renter",
              "type": "address"
            }
          ],
          "internalType": "struct AirBlock.Booking[]",
          "name": "",
          "type": "tuple[]"
        }
      ],
      "stateMutability": "view",
      "type": "function"
    },
    {
      "inputs": [],
      "name": "getAllProperties",
      "outputs": [
        {
          "components": [
            {
              "internalType": "uint256",
              "name": "id",
              "type": "uint256"
            },
            {
              "internalType": "string",
              "name": "name",
              "type": "string"
            },
            {
              "internalType": "string",
              "name": "description",
              "type": "string"
            },
            {
              "internalType": "string",
              "name": "location",
              "type": "string"
            },
            {
              "internalType": "string[]",
              "name": "images",
              "type": "string[]"
            },
            {
              "internalType": "bool",
              "name": "isActive",
              "type": "bool"
            },
            {
              "internalType": "uint256",
              "name": "price",
              "type": "uint256"
            },
            {
              "internalType": "string",
              "name": "currency",
              "type": "string"
            },
            {
              "internalType": "address",
              "name": "owner",
              "type": "address"
            },
            {
              "internalType": "bool[]",
              "name": "isBooked",
              "type": "bool[]"
            }
          ],
          "internalType": "struct AirBlock.Property[]",
          "name": "",
          "type": "tuple[]"
        }
      ],
      "stateMutability": "view",
      "type": "function"
    },
    {
      "inputs": [],
      "name": "getBookingsForTenant",
      "outputs": [
        {
          "components": [
            {
              "internalType": "uint256",
              "name": "bookingId",
              "type": "uint256"
            },
            {
              "internalType": "uint256",
              "name": "propertyId",
              "type": "uint256"
            },
            {
              "internalType": "string",
              "name": "checkInDate",
              "type": "string"
            },
            {
              "internalType": "string",
              "name": "checkOutDate",
              "type": "string"
            },
            {
              "internalType": "uint256",
              "name": "checkInDay",
              "type": "uint256"
            },
            {
              "internalType": "uint256",
              "name": "checkOutDay",
              "type": "uint256"
            },
            {
              "internalType": "uint256",
              "name": "totalPrice",
              "type": "uint256"
            },
            {
              "internalType": "bool",
              "name": "isConfirmed",
              "type": "bool"
            },
            {
              "internalType": "bool",
              "name": "isDeleted",
              "type": "bool"
            },
            {
              "internalType": "address",
              "name": "renter",
              "type": "address"
            }
          ],
          "internalType": "struct AirBlock.Booking[]",
          "name": "",
          "type": "tuple[]"
        }
      ],
      "stateMutability": "view",
      "type": "function"
    },
    {
      "inputs": [],
      "name": "getPropertiesForOwner",
      "outputs": [
        {
          "components": [
            {
              "internalType": "uint256",
              "name": "id",
              "type": "uint256"
            },
            {
              "internalType": "string",
              "name": "name",
              "type": "string"
            },
            {
              "internalType": "string",
              "name": "description",
              "type": "string"
            },
            {
              "internalType": "string",
              "name": "location",
              "type": "string"
            },
            {
              "internalType": "string[]",
              "name": "images",
              "type": "string[]"
            },
            {
              "internalType": "bool",
              "name": "isActive",
              "type": "bool"
            },
            {
              "internalType": "uint256",
              "name": "price",
              "type": "uint256"
            },
            {
              "internalType": "string",
              "name": "currency",
              "type": "string"
            },
            {
              "internalType": "address",
              "name": "owner",
              "type": "address"
            },
            {
              "internalType": "bool[]",
              "name": "isBooked",
              "type": "bool[]"
            }
          ],
          "internalType": "struct AirBlock.Property[]",
          "name": "",
          "type": "tuple[]"
        }
      ],
      "stateMutability": "view",
      "type": "function"
    },
    {
      "inputs": [
        {
          "internalType": "string",
          "name": "name",
          "type": "string"
        },
        {
          "internalType": "string",
          "name": "description",
          "type": "string"
        },
        {
          "internalType": "string",
          "name": "location",
          "type": "string"
        },
        {
          "internalType": "string[]",
          "name": "images",
          "type": "string[]"
        },
        {
          "internalType": "uint256",
          "name": "price",
          "type": "uint256"
        },
        {
          "internalType": "string",
          "name": "currency",
          "type": "string"
        }
      ],
      "name": "listProperty",
      "outputs": [
        {
          "internalType": "uint256",
          "name": "",
          "type": "uint256"
        }
      ],
      "stateMutability": "nonpayable",
      "type": "function"
    },
    {
      "inputs": [
        {
          "internalType": "uint256",
          "name": "_propertyId",
          "type": "uint256"
        }
      ],
      "name": "markPropertyAsInactive",
      "outputs": [],
      "stateMutability": "nonpayable",
      "type": "function"
    },
    {
      "inputs": [
        {
          "internalType": "uint256",
          "name": "_bookingId",
          "type": "uint256"
        },
        {
          "internalType": "string",
          "name": "newCheckInDate",
          "type": "string"
        },
        {
          "internalType": "string",
          "name": "newCheckOutDate",
          "type": "string"
        },
        {
          "internalType": "uint256",
          "name": "newCheckInDay",
          "type": "uint256"
        },
        {
          "internalType": "uint256",
          "name": "newCheckOutDay",
          "type": "uint256"
        }
      ],
      "name": "modifyBooking",
      "outputs": [],
      "stateMutability": "nonpayable",
      "type": "function"
    },
    {
      "inputs": [
        {
          "internalType": "uint256",
          "name": "",
          "type": "uint256"
        }
      ],
      "name": "properties",
      "outputs": [
        {
          "internalType": "uint256",
          "name": "id",
          "type": "uint256"
        },
        {
          "internalType": "string",
          "name": "name",
          "type": "string"
        },
        {
          "internalType": "string",
          "name": "description",
          "type": "string"
        },
        {
          "internalType": "string",
          "name": "location",
          "type": "string"
        },
        {
          "internalType": "bool",
          "name": "isActive",
          "type": "bool"
        },
        {
          "internalType": "uint256",
          "name": "price",
          "type": "uint256"
        },
        {
          "internalType": "string",
          "name": "currency",
          "type": "string"
        },
        {
          "internalType": "address",
          "name": "owner",
          "type": "address"
        }
      ],
      "stateMutability": "view",
      "type": "function"
    },
    {
      "inputs": [],
      "name": "propertyId",
      "outputs": [
        {
          "internalType": "uint256",
          "name": "",
          "type": "uint256"
        }
      ],
      "stateMutability": "view",
      "type": "function"
    },
    {
      "inputs": [
        {
          "internalType": "uint256",
          "name": "_propertyId",
          "type": "uint256"
        },
        {
          "internalType": "string",
          "name": "checkInDate",
          "type": "string"
        },
        {
          "internalType": "string",
          "name": "checkOutDate",
          "type": "string"
        },
        {
          "internalType": "uint256",
          "name": "checkInDay",
          "type": "uint256"
        },
        {
          "internalType": "uint256",
          "name": "checkOutDay",
          "type": "uint256"
        }
      ],
      "name": "rentProperty",
      "outputs": [],
      "stateMutability": "nonpayable",
      "type": "function"
    }
  ],
  "bytecode": "0x608060405234801561001057600080fd5b506156f680620000216000396000f3fe6080604052600436106100e85760003560e01c8063659bba9d1161008a578063ee7a3b8e11610059578063ee7a3b8e146102dc578063f7b1080814610307578063fe53d3bc1461034b578063feca151614610376576100e8565b8063659bba9d14610236578063b3e3f80314610261578063b5e73dd01461028a578063dacc8f83146102b3576100e8565b80633d51402c116100c65780633d51402c146101875780634245f2fe146101b25780634748224b146101dd57806354056b691461021a576100e8565b80630a10df7c146100ed5780631dab301e146101185780633ae7f0df1461015e575b600080fd5b3480156100f957600080fd5b506101026103a1565b60405161010f9190614efc565b60405180910390f35b34801561012457600080fd5b5061013f600480360381019061013a9190614758565b6103a7565b6040516101559a99989796959493929190614fb1565b60405180910390f35b34801561016a57600080fd5b5061018560048036038101906101809190614758565b610545565b005b34801561019357600080fd5b5061019c610e21565b6040516101a99190614dfa565b60405180910390f35b3480156101be57600080fd5b506101c7611350565b6040516101d49190614dd8565b60405180910390f35b3480156101e957600080fd5b5061020460048036038101906101ff9190614657565b61163f565b6040516102119190614efc565b60405180910390f35b610234600480360381019061022f9190614758565b6118ad565b005b34801561024257600080fd5b5061024b6121d6565b6040516102589190614dfa565b60405180910390f35b34801561026d57600080fd5b5061028860048036038101906102839190614758565b612746565b005b34801561029657600080fd5b506102b160048036038101906102ac9190614781565b61281a565b005b3480156102bf57600080fd5b506102da60048036038101906102d59190614781565b612984565b005b3480156102e857600080fd5b506102f16133fd565b6040516102fe9190614efc565b60405180910390f35b34801561031357600080fd5b5061032e60048036038101906103299190614758565b613403565b604051610342989796959493929190614f17565b60405180910390f35b34801561035757600080fd5b50610360613698565b60405161036d9190614dfa565b60405180910390f35b34801561038257600080fd5b5061038b613c42565b6040516103989190614dd8565b60405180910390f35b60025481565b60016020528060005260406000206000915090508060000154908060010154908060020180546103d69061535c565b80601f01602080910402602001604051908101604052809291908181526020018280546104029061535c565b801561044f5780601f106104245761010080835404028352916020019161044f565b820191906000526020600020905b81548152906001019060200180831161043257829003601f168201915b5050505050908060030180546104649061535c565b80601f01602080910402602001604051908101604052809291908181526020018280546104909061535c565b80156104dd5780601f106104b2576101008083540402835291602001916104dd565b820191906000526020600020905b8154815290600101906020018083116104c057829003601f168201915b5050505050908060040154908060050154908060060154908060070160009054906101000a900460ff16908060070160019054906101000a900460ff16908060070160029054906101000a900473ffffffffffffffffffffffffffffffffffffffff1690508a565b60006001600083815260200190815260200160002060405180610140016040529081600082015481526020016001820154815260200160028201805461058a9061535c565b80601f01602080910402602001604051908101604052809291908181526020018280546105b69061535c565b80156106035780601f106105d857610100808354040283529160200191610603565b820191906000526020600020905b8154815290600101906020018083116105e657829003601f168201915b5050505050815260200160038201805461061c9061535c565b80601f01602080910402602001604051908101604052809291908181526020018280546106489061535c565b80156106955780601f1061066a57610100808354040283529160200191610695565b820191906000526020600020905b81548152906001019060200180831161067857829003601f168201915b505050505081526020016004820154815260200160058201548152602001600682015481526020016007820160009054906101000a900460ff161515151581526020016007820160019054906101000a900460ff161515151581526020016007820160029054906101000a900473ffffffffffffffffffffffffffffffffffffffff1673ffffffffffffffffffffffffffffffffffffffff1673ffffffffffffffffffffffffffffffffffffffff1681525050905060008060008360200151815260200190815260200160002060405180610140016040529081600082015481526020016001820180546107889061535c565b80601f01602080910402602001604051908101604052809291908181526020018280546107b49061535c565b80156108015780601f106107d657610100808354040283529160200191610801565b820191906000526020600020905b8154815290600101906020018083116107e457829003601f168201915b5050505050815260200160028201805461081a9061535c565b80601f01602080910402602001604051908101604052809291908181526020018280546108469061535c565b80156108935780601f1061086857610100808354040283529160200191610893565b820191906000526020600020905b81548152906001019060200180831161087657829003601f168201915b505050505081526020016003820180546108ac9061535c565b80601f01602080910402602001604051908101604052809291908181526020018280546108d89061535c565b80156109255780601f106108fa57610100808354040283529160200191610925565b820191906000526020600020905b81548152906001019060200180831161090857829003601f168201915b5050505050815260200160048201805480602002602001604051908101604052809291908181526020016000905b828210156109ff5783829060005260206000200180546109729061535c565b80601f016020809104026020016040519081016040528092919081815260200182805461099e9061535c565b80156109eb5780601f106109c0576101008083540402835291602001916109eb565b820191906000526020600020905b8154815290600101906020018083116109ce57829003601f168201915b505050505081526020019060010190610953565b5050505081526020016005820160009054906101000a900460ff1615151515815260200160068201548152602001600782018054610a3c9061535c565b80601f0160208091040260200160405190810160405280929190818152602001828054610a689061535c565b8015610ab55780601f10610a8a57610100808354040283529160200191610ab5565b820191906000526020600020905b815481529060010190602001808311610a9857829003601f168201915b505050505081526020016008820160009054906101000a900473ffffffffffffffffffffffffffffffffffffffff1673ffffffffffffffffffffffffffffffffffffffff1673ffffffffffffffffffffffffffffffffffffffff16815260200160098201805480602002602001604051908101604052809291908181526020018280548015610b8857602002820191906000526020600020906000905b82829054906101000a900460ff16151581526020019060010190602082600001049283019260010382029150808411610b525790505b5050505050815250509050600015158260e00151151514610bde576040517f08c379a0000000000000000000000000000000000000000000000000000000008152600401610bd590614ebc565b60405180910390fd5b3373ffffffffffffffffffffffffffffffffffffffff1682610120015173ffffffffffffffffffffffffffffffffffffffff1614610c51576040517f08c379a0000000000000000000000000000000000000000000000000000000008152600401610c4890614e1c565b60405180910390fd5b6000826080015190505b8260a00151811015610ccc5760008261012001518281518110610ca7577f4e487b7100000000000000000000000000000000000000000000000000000000600052603260045260246000fd5b6020026020010190151590811515815250508080610cc4906153bf565b915050610c5b565b50600182610100019015159081151581525050816001600085815260200190815260200160002060008201518160000155602082015181600101556040820151816002019080519060200190610d23929190614245565b506060820151816003019080519060200190610d40929190614245565b506080820151816004015560a0820151816005015560c0820151816006015560e08201518160070160006101000a81548160ff0219169083151502179055506101008201518160070160016101000a81548160ff0219169083151502179055506101208201518160070160026101000a81548173ffffffffffffffffffffffffffffffffffffffff021916908373ffffffffffffffffffffffffffffffffffffffff16021790555090505081600001517f0ff3206a46833fa9931ace1eef46f45f22c9987d2d8b5f862bc92b92dd494e0c60405160405180910390a2505050565b6060600060035467ffffffffffffffff811115610e67577f4e487b7100000000000000000000000000000000000000000000000000000000600052604160045260246000fd5b604051908082528060200260200182016040528015610ea057816020015b610e8d6142cb565b815260200190600190039081610e855790505b50905060005b600354811015611348576000808281526020019081526020016000206040518061014001604052908160008201548152602001600182018054610ee89061535c565b80601f0160208091040260200160405190810160405280929190818152602001828054610f149061535c565b8015610f615780601f10610f3657610100808354040283529160200191610f61565b820191906000526020600020905b815481529060010190602001808311610f4457829003601f168201915b50505050508152602001600282018054610f7a9061535c565b80601f0160208091040260200160405190810160405280929190818152602001828054610fa69061535c565b8015610ff35780601f10610fc857610100808354040283529160200191610ff3565b820191906000526020600020905b815481529060010190602001808311610fd657829003601f168201915b5050505050815260200160038201805461100c9061535c565b80601f01602080910402602001604051908101604052809291908181526020018280546110389061535c565b80156110855780601f1061105a57610100808354040283529160200191611085565b820191906000526020600020905b81548152906001019060200180831161106857829003601f168201915b5050505050815260200160048201805480602002602001604051908101604052809291908181526020016000905b8282101561115f5783829060005260206000200180546110d29061535c565b80601f01602080910402602001604051908101604052809291908181526020018280546110fe9061535c565b801561114b5780601f106111205761010080835404028352916020019161114b565b820191906000526020600020905b81548152906001019060200180831161112e57829003601f168201915b5050505050815260200190600101906110b3565b5050505081526020016005820160009054906101000a900460ff161515151581526020016006820154815260200160078201805461119c9061535c565b80601f01602080910402602001604051908101604052809291908181526020018280546111c89061535c565b80156112155780601f106111ea57610100808354040283529160200191611215565b820191906000526020600020905b8154815290600101906020018083116111f857829003601f168201915b505050505081526020016008820160009054906101000a900473ffffffffffffffffffffffffffffffffffffffff1673ffffffffffffffffffffffffffffffffffffffff1673ffffffffffffffffffffffffffffffffffffffff168152602001600982018054806020026020016040519081016040528092919081815260200182805480156112e857602002820191906000526020600020906000905b82829054906101000a900460ff161515815260200190600101906020826000010492830192600103820291508084116112b25790505b50505050508152505082828151811061132a577f4e487b7100000000000000000000000000000000000000000000000000000000600052603260045260246000fd5b60200260200101819052508080611340906153bf565b915050610ea6565b508091505090565b6060600060025467ffffffffffffffff811115611396577f4e487b7100000000000000000000000000000000000000000000000000000000600052604160045260246000fd5b6040519080825280602002602001820160405280156113cf57816020015b6113bc614336565b8152602001906001900390816113b45790505b50905060005b60025481101561163757600160008281526020019081526020016000206040518061014001604052908160008201548152602001600182015481526020016002820180546114229061535c565b80601f016020809104026020016040519081016040528092919081815260200182805461144e9061535c565b801561149b5780601f106114705761010080835404028352916020019161149b565b820191906000526020600020905b81548152906001019060200180831161147e57829003601f168201915b505050505081526020016003820180546114b49061535c565b80601f01602080910402602001604051908101604052809291908181526020018280546114e09061535c565b801561152d5780601f106115025761010080835404028352916020019161152d565b820191906000526020600020905b81548152906001019060200180831161151057829003601f168201915b505050505081526020016004820154815260200160058201548152602001600682015481526020016007820160009054906101000a900460ff161515151581526020016007820160019054906101000a900460ff161515151581526020016007820160029054906101000a900473ffffffffffffffffffffffffffffffffffffffff1673ffffffffffffffffffffffffffffffffffffffff1673ffffffffffffffffffffffffffffffffffffffff1681525050828281518110611619577f4e487b7100000000000000000000000000000000000000000000000000000000600052603260045260246000fd5b6020026020010181905250808061162f906153bf565b9150506113d5565b508091505090565b600080600354905060006040518061014001604052808381526020018a81526020018981526020018881526020018781526020016001151581526020018681526020018581526020013373ffffffffffffffffffffffffffffffffffffffff16815260200161016d67ffffffffffffffff8111156116e6577f4e487b7100000000000000000000000000000000000000000000000000000000600052604160045260246000fd5b6040519080825280602002602001820160405280156117145781602001602082028036833780820191505090505b50815250905080600080848152602001908152602001600020600082015181600001556020820151816001019080519060200190611753929190614245565b506040820151816002019080519060200190611770929190614245565b50606082015181600301908051906020019061178d929190614245565b5060808201518160040190805190602001906117aa9291906143a3565b5060a08201518160050160006101000a81548160ff02191690831515021790555060c0820151816006015560e08201518160070190805190602001906117f1929190614245565b506101008201518160080160006101000a81548173ffffffffffffffffffffffffffffffffffffffff021916908373ffffffffffffffffffffffffffffffffffffffff160217905550610120820151816009019080519060200190611857929190614403565b509050506003600081548092919061186e906153bf565b919050557f49b7a39e21349b16cf820bbd35d2bc2d9f04dac75faa535510fc24d172b34afd60405160405180910390a281925050509695505050505050565b6000600160008381526020019081526020016000206040518061014001604052908160008201548152602001600182015481526020016002820180546118f29061535c565b80601f016020809104026020016040519081016040528092919081815260200182805461191e9061535c565b801561196b5780601f106119405761010080835404028352916020019161196b565b820191906000526020600020905b81548152906001019060200180831161194e57829003601f168201915b505050505081526020016003820180546119849061535c565b80601f01602080910402602001604051908101604052809291908181526020018280546119b09061535c565b80156119fd5780601f106119d2576101008083540402835291602001916119fd565b820191906000526020600020905b8154815290600101906020018083116119e057829003601f168201915b505050505081526020016004820154815260200160058201548152602001600682015481526020016007820160009054906101000a900460ff161515151581526020016007820160019054906101000a900460ff161515151581526020016007820160029054906101000a900473ffffffffffffffffffffffffffffffffffffffff1673ffffffffffffffffffffffffffffffffffffffff1673ffffffffffffffffffffffffffffffffffffffff168152505090506000806000836020015181526020019081526020016000206040518061014001604052908160008201548152602001600182018054611af09061535c565b80601f0160208091040260200160405190810160405280929190818152602001828054611b1c9061535c565b8015611b695780601f10611b3e57610100808354040283529160200191611b69565b820191906000526020600020905b815481529060010190602001808311611b4c57829003601f168201915b50505050508152602001600282018054611b829061535c565b80601f0160208091040260200160405190810160405280929190818152602001828054611bae9061535c565b8015611bfb5780601f10611bd057610100808354040283529160200191611bfb565b820191906000526020600020905b815481529060010190602001808311611bde57829003601f168201915b50505050508152602001600382018054611c149061535c565b80601f0160208091040260200160405190810160405280929190818152602001828054611c409061535c565b8015611c8d5780601f10611c6257610100808354040283529160200191611c8d565b820191906000526020600020905b815481529060010190602001808311611c7057829003601f168201915b5050505050815260200160048201805480602002602001604051908101604052809291908181526020016000905b82821015611d67578382906000526020600020018054611cda9061535c565b80601f0160208091040260200160405190810160405280929190818152602001828054611d069061535c565b8015611d535780601f10611d2857610100808354040283529160200191611d53565b820191906000526020600020905b815481529060010190602001808311611d3657829003601f168201915b505050505081526020019060010190611cbb565b5050505081526020016005820160009054906101000a900460ff1615151515815260200160068201548152602001600782018054611da49061535c565b80601f0160208091040260200160405190810160405280929190818152602001828054611dd09061535c565b8015611e1d5780601f10611df257610100808354040283529160200191611e1d565b820191906000526020600020905b815481529060010190602001808311611e0057829003601f168201915b505050505081526020016008820160009054906101000a900473ffffffffffffffffffffffffffffffffffffffff1673ffffffffffffffffffffffffffffffffffffffff1673ffffffffffffffffffffffffffffffffffffffff16815260200160098201805480602002602001604051908101604052809291908181526020018280548015611ef057602002820191906000526020600020906000905b82829054906101000a900460ff16151581526020019060010190602082600001049283019260010382029150808411611eba5790505b505050505081525050905060001515826101000151151514611f47576040517f08c379a0000000000000000000000000000000000000000000000000000000008152600401611f3e90614e3c565b60405180910390fd5b600115158160a00151151514611f92576040517f08c379a0000000000000000000000000000000000000000000000000000000008152600401611f8990614e5c565b60405180910390fd5b3373ffffffffffffffffffffffffffffffffffffffff1682610120015173ffffffffffffffffffffffffffffffffffffffff1614612005576040517f08c379a0000000000000000000000000000000000000000000000000000000008152600401611ffc90614e1c565b60405180910390fd5b600082608001518360a0015161201b919061529e565b8260c0015161202a9190615244565b90508034101561206f576040517f08c379a000000000000000000000000000000000000000000000000000000000815260040161206690614e7c565b60405180910390fd5b60018360e00190151590811515815250508260016000868152602001908152602001600020600082015181600001556020820151816001015560408201518160020190805190602001906120c4929190614245565b5060608201518160030190805190602001906120e1929190614245565b506080820151816004015560a0820151816005015560c0820151816006015560e08201518160070160006101000a81548160ff0219169083151502179055506101008201518160070160016101000a81548160ff0219169083151502179055506101208201518160070160026101000a81548173ffffffffffffffffffffffffffffffffffffffff021916908373ffffffffffffffffffffffffffffffffffffffff16021790555090505061219f8261010001518460c00151613f9c565b82600001517f9b54a911706dc6c1c84e0e238724637bd021bf87cd958124c8b71e4664677c7560405160405180910390a250505050565b6060600060035467ffffffffffffffff81111561221c577f4e487b7100000000000000000000000000000000000000000000000000000000600052604160045260246000fd5b60405190808252806020026020018201604052801561225557816020015b6122426142cb565b81526020019060019003908161223a5790505b5090506000805b60035481101561273d576001151560008083815260200190815260200160002060050160009054906101000a900460ff161515141561272a5760008082815260200190815260200160002060405180610140016040529081600082015481526020016001820180546122cd9061535c565b80601f01602080910402602001604051908101604052809291908181526020018280546122f99061535c565b80156123465780601f1061231b57610100808354040283529160200191612346565b820191906000526020600020905b81548152906001019060200180831161232957829003601f168201915b5050505050815260200160028201805461235f9061535c565b80601f016020809104026020016040519081016040528092919081815260200182805461238b9061535c565b80156123d85780601f106123ad576101008083540402835291602001916123d8565b820191906000526020600020905b8154815290600101906020018083116123bb57829003601f168201915b505050505081526020016003820180546123f19061535c565b80601f016020809104026020016040519081016040528092919081815260200182805461241d9061535c565b801561246a5780601f1061243f5761010080835404028352916020019161246a565b820191906000526020600020905b81548152906001019060200180831161244d57829003601f168201915b5050505050815260200160048201805480602002602001604051908101604052809291908181526020016000905b828210156125445783829060005260206000200180546124b79061535c565b80601f01602080910402602001604051908101604052809291908181526020018280546124e39061535c565b80156125305780601f1061250557610100808354040283529160200191612530565b820191906000526020600020905b81548152906001019060200180831161251357829003601f168201915b505050505081526020019060010190612498565b5050505081526020016005820160009054906101000a900460ff16151515158152602001600682015481526020016007820180546125819061535c565b80601f01602080910402602001604051908101604052809291908181526020018280546125ad9061535c565b80156125fa5780601f106125cf576101008083540402835291602001916125fa565b820191906000526020600020905b8154815290600101906020018083116125dd57829003601f168201915b505050505081526020016008820160009054906101000a900473ffffffffffffffffffffffffffffffffffffffff1673ffffffffffffffffffffffffffffffffffffffff1673ffffffffffffffffffffffffffffffffffffffff168152602001600982018054806020026020016040519081016040528092919081815260200182805480156126cd57602002820191906000526020600020906000905b82829054906101000a900460ff161515815260200190600101906020826000010492830192600103820291508084116126975790505b50505050508152505083838151811061270f577f4e487b7100000000000000000000000000000000000000000000000000000000600052603260045260246000fd5b602002602001018190525060018261272791906151ee565b91505b8080612735906153bf565b91505061225c565b50819250505090565b3373ffffffffffffffffffffffffffffffffffffffff1660008083815260200190815260200160002060080160009054906101000a900473ffffffffffffffffffffffffffffffffffffffff1673ffffffffffffffffffffffffffffffffffffffff16146127e9576040517f08c379a00000000000000000000000000000000000000000000000000000000081526004016127e090614edc565b60405180910390fd5b600080600083815260200190815260200160002060050160006101000a81548160ff02191690831515021790555050565b60008060008781526020019081526020016000209050600115158160050160009054906101000a900460ff16151514612888576040517f08c379a000000000000000000000000000000000000000000000000000000000815260040161287f90614e5c565b60405180910390fd5b60008390505b8281101561294c57600115158260090182815481106128d6577f4e487b7100000000000000000000000000000000000000000000000000000000600052603260045260246000fd5b90600052602060002090602091828204019190069054906101000a900460ff1615151415612939576040517f08c379a000000000000000000000000000000000000000000000000000000000815260040161293090614e9c565b60405180910390fd5b8080612944906153bf565b91505061288e565b506000838361295b919061529e565b826006015461296a9190615244565b905061297b87878787878633613fe7565b50505050505050565b6000600160008781526020019081526020016000206040518061014001604052908160008201548152602001600182015481526020016002820180546129c99061535c565b80601f01602080910402602001604051908101604052809291908181526020018280546129f59061535c565b8015612a425780601f10612a1757610100808354040283529160200191612a42565b820191906000526020600020905b815481529060010190602001808311612a2557829003601f168201915b50505050508152602001600382018054612a5b9061535c565b80601f0160208091040260200160405190810160405280929190818152602001828054612a879061535c565b8015612ad45780601f10612aa957610100808354040283529160200191612ad4565b820191906000526020600020905b815481529060010190602001808311612ab757829003601f168201915b505050505081526020016004820154815260200160058201548152602001600682015481526020016007820160009054906101000a900460ff161515151581526020016007820160019054906101000a900460ff161515151581526020016007820160029054906101000a900473ffffffffffffffffffffffffffffffffffffffff1673ffffffffffffffffffffffffffffffffffffffff1673ffffffffffffffffffffffffffffffffffffffff168152505090506000806000836020015181526020019081526020016000206040518061014001604052908160008201548152602001600182018054612bc79061535c565b80601f0160208091040260200160405190810160405280929190818152602001828054612bf39061535c565b8015612c405780601f10612c1557610100808354040283529160200191612c40565b820191906000526020600020905b815481529060010190602001808311612c2357829003601f168201915b50505050508152602001600282018054612c599061535c565b80601f0160208091040260200160405190810160405280929190818152602001828054612c859061535c565b8015612cd25780601f10612ca757610100808354040283529160200191612cd2565b820191906000526020600020905b815481529060010190602001808311612cb557829003601f168201915b50505050508152602001600382018054612ceb9061535c565b80601f0160208091040260200160405190810160405280929190818152602001828054612d179061535c565b8015612d645780601f10612d3957610100808354040283529160200191612d64565b820191906000526020600020905b815481529060010190602001808311612d4757829003601f168201915b5050505050815260200160048201805480602002602001604051908101604052809291908181526020016000905b82821015612e3e578382906000526020600020018054612db19061535c565b80601f0160208091040260200160405190810160405280929190818152602001828054612ddd9061535c565b8015612e2a5780601f10612dff57610100808354040283529160200191612e2a565b820191906000526020600020905b815481529060010190602001808311612e0d57829003601f168201915b505050505081526020019060010190612d92565b5050505081526020016005820160009054906101000a900460ff1615151515815260200160068201548152602001600782018054612e7b9061535c565b80601f0160208091040260200160405190810160405280929190818152602001828054612ea79061535c565b8015612ef45780601f10612ec957610100808354040283529160200191612ef4565b820191906000526020600020905b815481529060010190602001808311612ed757829003601f168201915b505050505081526020016008820160009054906101000a900473ffffffffffffffffffffffffffffffffffffffff1673ffffffffffffffffffffffffffffffffffffffff1673ffffffffffffffffffffffffffffffffffffffff16815260200160098201805480602002602001604051908101604052809291908181526020018280548015612fc757602002820191906000526020600020906000905b82829054906101000a900460ff16151581526020019060010190602082600001049283019260010382029150808411612f915790505b5050505050815250509050600115158160a0015115151461301d576040517f08c379a000000000000000000000000000000000000000000000000000000000815260040161301490614e5c565b60405180910390fd5b60001515826101000151151514613069576040517f08c379a000000000000000000000000000000000000000000000000000000000815260040161306090614e3c565b60405180910390fd5b3373ffffffffffffffffffffffffffffffffffffffff1682610120015173ffffffffffffffffffffffffffffffffffffffff16146130dc576040517f08c379a00000000000000000000000000000000000000000000000000000000081526004016130d390614e1c565b60405180910390fd5b60008490505b8381101561318a5760011515826101200151828151811061312c577f4e487b7100000000000000000000000000000000000000000000000000000000600052603260045260246000fd5b602002602001015115151415613177576040517f08c379a000000000000000000000000000000000000000000000000000000000815260040161316e90614e9c565b60405180910390fd5b8080613182906153bf565b9150506130e2565b506000826080015190505b8260a0015181101561320657600082610120015182815181106131e1577f4e487b7100000000000000000000000000000000000000000000000000000000600052603260045260246000fd5b60200260200101901515908115158152505080806131fe906153bf565b915050613195565b5060008490505b8381101561327a5760018261012001518281518110613255577f4e487b7100000000000000000000000000000000000000000000000000000000600052603260045260246000fd5b6020026020010190151590811515815250508080613272906153bf565b91505061320d565b5060008484613289919061529e565b8260c001516132989190615244565b9050808360c001818152505086836040018190525085836060018190525082600160008a8152602001908152602001600020600082015181600001556020820151816001015560408201518160020190805190602001906132fa929190614245565b506060820151816003019080519060200190613317929190614245565b506080820151816004015560a0820151816005015560c0820151816006015560e08201518160070160006101000a81548160ff0219169083151502179055506101008201518160070160016101000a81548160ff0219169083151502179055506101208201518160070160026101000a81548173ffffffffffffffffffffffffffffffffffffffff021916908373ffffffffffffffffffffffffffffffffffffffff16021790555090505082600001517f711ef775b4e64f3a5b4c993fa8439667595f524115c7774d2b14a6b69c06ed6f60405160405180910390a25050505050505050565b60035481565b600060205280600052604060002060009150905080600001549080600101805461342c9061535c565b80601f01602080910402602001604051908101604052809291908181526020018280546134589061535c565b80156134a55780601f1061347a576101008083540402835291602001916134a5565b820191906000526020600020905b81548152906001019060200180831161348857829003601f168201915b5050505050908060020180546134ba9061535c565b80601f01602080910402602001604051908101604052809291908181526020018280546134e69061535c565b80156135335780601f1061350857610100808354040283529160200191613533565b820191906000526020600020905b81548152906001019060200180831161351657829003601f168201915b5050505050908060030180546135489061535c565b80601f01602080910402602001604051908101604052809291908181526020018280546135749061535c565b80156135c15780601f10613596576101008083540402835291602001916135c1565b820191906000526020600020905b8154815290600101906020018083116135a457829003601f168201915b5050505050908060050160009054906101000a900460ff16908060060154908060070180546135ef9061535c565b80601f016020809104026020016040519081016040528092919081815260200182805461361b9061535c565b80156136685780601f1061363d57610100808354040283529160200191613668565b820191906000526020600020905b81548152906001019060200180831161364b57829003601f168201915b5050505050908060080160009054906101000a900473ffffffffffffffffffffffffffffffffffffffff16905088565b6060600060035467ffffffffffffffff8111156136de577f4e487b7100000000000000000000000000000000000000000000000000000000600052604160045260246000fd5b60405190808252806020026020018201604052801561371757816020015b6137046142cb565b8152602001906001900390816136fc5790505b5090506000805b600354811015613c39573373ffffffffffffffffffffffffffffffffffffffff1660008083815260200190815260200160002060080160009054906101000a900473ffffffffffffffffffffffffffffffffffffffff1673ffffffffffffffffffffffffffffffffffffffff161415613c265760008082815260200190815260200160002060405180610140016040529081600082015481526020016001820180546137c99061535c565b80601f01602080910402602001604051908101604052809291908181526020018280546137f59061535c565b80156138425780601f1061381757610100808354040283529160200191613842565b820191906000526020600020905b81548152906001019060200180831161382557829003601f168201915b5050505050815260200160028201805461385b9061535c565b80601f01602080910402602001604051908101604052809291908181526020018280546138879061535c565b80156138d45780601f106138a9576101008083540402835291602001916138d4565b820191906000526020600020905b8154815290600101906020018083116138b757829003601f168201915b505050505081526020016003820180546138ed9061535c565b80601f01602080910402602001604051908101604052809291908181526020018280546139199061535c565b80156139665780601f1061393b57610100808354040283529160200191613966565b820191906000526020600020905b81548152906001019060200180831161394957829003601f168201915b5050505050815260200160048201805480602002602001604051908101604052809291908181526020016000905b82821015613a405783829060005260206000200180546139b39061535c565b80601f01602080910402602001604051908101604052809291908181526020018280546139df9061535c565b8015613a2c5780601f10613a0157610100808354040283529160200191613a2c565b820191906000526020600020905b815481529060010190602001808311613a0f57829003601f168201915b505050505081526020019060010190613994565b5050505081526020016005820160009054906101000a900460ff1615151515815260200160068201548152602001600782018054613a7d9061535c565b80601f0160208091040260200160405190810160405280929190818152602001828054613aa99061535c565b8015613af65780601f10613acb57610100808354040283529160200191613af6565b820191906000526020600020905b815481529060010190602001808311613ad957829003601f168201915b505050505081526020016008820160009054906101000a900473ffffffffffffffffffffffffffffffffffffffff1673ffffffffffffffffffffffffffffffffffffffff1673ffffffffffffffffffffffffffffffffffffffff16815260200160098201805480602002602001604051908101604052809291908181526020018280548015613bc957602002820191906000526020600020906000905b82829054906101000a900460ff16151581526020019060010190602082600001049283019260010382029150808411613b935790505b505050505081525050838381518110613c0b577f4e487b7100000000000000000000000000000000000000000000000000000000600052603260045260246000fd5b6020026020010181905250600182613c2391906151ee565b91505b8080613c31906153bf565b91505061371e565b50819250505090565b6060600060025467ffffffffffffffff811115613c88577f4e487b7100000000000000000000000000000000000000000000000000000000600052604160045260246000fd5b604051908082528060200260200182016040528015613cc157816020015b613cae614336565b815260200190600190039081613ca65790505b50905060005b600254811015613f94573373ffffffffffffffffffffffffffffffffffffffff166001600083815260200190815260200160002060070160029054906101000a900473ffffffffffffffffffffffffffffffffffffffff1673ffffffffffffffffffffffffffffffffffffffff161415613f815760016000828152602001908152602001600020604051806101400160405290816000820154815260200160018201548152602001600282018054613d7e9061535c565b80601f0160208091040260200160405190810160405280929190818152602001828054613daa9061535c565b8015613df75780601f10613dcc57610100808354040283529160200191613df7565b820191906000526020600020905b815481529060010190602001808311613dda57829003601f168201915b50505050508152602001600382018054613e109061535c565b80601f0160208091040260200160405190810160405280929190818152602001828054613e3c9061535c565b8015613e895780601f10613e5e57610100808354040283529160200191613e89565b820191906000526020600020905b815481529060010190602001808311613e6c57829003601f168201915b505050505081526020016004820154815260200160058201548152602001600682015481526020016007820160009054906101000a900460ff161515151581526020016007820160019054906101000a900460ff161515151581526020016007820160029054906101000a900473ffffffffffffffffffffffffffffffffffffffff1673ffffffffffffffffffffffffffffffffffffffff1673ffffffffffffffffffffffffffffffffffffffff1681525050828281518110613f75577f4e487b7100000000000000000000000000000000000000000000000000000000600052603260045260246000fd5b60200260200101819052505b8080613f8c906153bf565b915050613cc7565b508091505090565b8173ffffffffffffffffffffffffffffffffffffffff166108fc829081150290604051600060405180830381858888f19350505050158015613fe2573d6000803e3d6000fd5b505050565b60405180610140016040528060025481526020018881526020018781526020018681526020018581526020018481526020018381526020016000151581526020016000151581526020018273ffffffffffffffffffffffffffffffffffffffff1681525060016000600254815260200190815260200160002060008201518160000155602082015181600101556040820151816002019080519060200190614090929190614245565b5060608201518160030190805190602001906140ad929190614245565b506080820151816004015560a0820151816005015560c0820151816006015560e08201518160070160006101000a81548160ff0219169083151502179055506101008201518160070160016101000a81548160ff0219169083151502179055506101208201518160070160026101000a81548173ffffffffffffffffffffffffffffffffffffffff021916908373ffffffffffffffffffffffffffffffffffffffff1602179055509050506000806000898152602001908152602001600020905060008590505b848110156141f65760018260090182815481106141ba577f4e487b7100000000000000000000000000000000000000000000000000000000600052603260045260246000fd5b90600052602060002090602091828204019190066101000a81548160ff02191690831515021790555080806141ee906153bf565b915050614174565b506002600081548092919061420a906153bf565b91905055887f4f65de66b4cd3e97fb943ca503efa62b328170ad1a0aac0e9c979a164a317b3860405160405180910390a35050505050505050565b8280546142519061535c565b90600052602060002090601f01602090048101928261427357600085556142ba565b82601f1061428c57805160ff19168380011785556142ba565b828001600101855582156142ba579182015b828111156142b957825182559160200191906001019061429e565b5b5090506142c791906144a9565b5090565b60405180610140016040528060008152602001606081526020016060815260200160608152602001606081526020016000151581526020016000815260200160608152602001600073ffffffffffffffffffffffffffffffffffffffff168152602001606081525090565b60405180610140016040528060008152602001600081526020016060815260200160608152602001600081526020016000815260200160008152602001600015158152602001600015158152602001600073ffffffffffffffffffffffffffffffffffffffff1681525090565b8280548282559060005260206000209081019282156143f2579160200282015b828111156143f15782518290805190602001906143e1929190614245565b50916020019190600101906143c3565b5b5090506143ff91906144c6565b5090565b82805482825590600052602060002090601f016020900481019282156144985791602002820160005b8382111561446957835183826101000a81548160ff021916908315150217905550926020019260010160208160000104928301926001030261442c565b80156144965782816101000a81549060ff0219169055600101602081600001049283019260010302614469565b505b5090506144a591906144a9565b5090565b5b808211156144c25760008160009055506001016144aa565b5090565b5b808211156144e657600081816144dd91906144ea565b506001016144c7565b5090565b5080546144f69061535c565b6000825580601f106145085750614527565b601f01602090049060005260206000209081019061452691906144a9565b5b50565b600061453d61453884615080565b61505b565b9050808382526020820190508285602086028201111561455c57600080fd5b60005b858110156145a657813567ffffffffffffffff81111561457e57600080fd5b80860161458b8982614618565b8552602085019450602084019350505060018101905061455f565b5050509392505050565b60006145c36145be846150ac565b61505b565b9050828152602081018484840111156145db57600080fd5b6145e684828561531a565b509392505050565b600082601f8301126145ff57600080fd5b813561460f84826020860161452a565b91505092915050565b600082601f83011261462957600080fd5b81356146398482602086016145b0565b91505092915050565b600081359050614651816156a9565b92915050565b60008060008060008060c0878903121561467057600080fd5b600087013567ffffffffffffffff81111561468a57600080fd5b61469689828a01614618565b965050602087013567ffffffffffffffff8111156146b357600080fd5b6146bf89828a01614618565b955050604087013567ffffffffffffffff8111156146dc57600080fd5b6146e889828a01614618565b945050606087013567ffffffffffffffff81111561470557600080fd5b61471189828a016145ee565b935050608061472289828a01614642565b92505060a087013567ffffffffffffffff81111561473f57600080fd5b61474b89828a01614618565b9150509295509295509295565b60006020828403121561476a57600080fd5b600061477884828501614642565b91505092915050565b600080600080600060a0868803121561479957600080fd5b60006147a788828901614642565b955050602086013567ffffffffffffffff8111156147c457600080fd5b6147d088828901614618565b945050604086013567ffffffffffffffff8111156147ed57600080fd5b6147f988828901614618565b935050606061480a88828901614642565b925050608061481b88828901614642565b9150509295509295909350565b60006148348383614a57565b60208301905092915050565b600061484c8383614a75565b905092915050565b60006148608383614bdc565b905092915050565b60006148748383614cbd565b905092915050565b614885816152d2565b82525050565b614894816152d2565b82525050565b60006148a58261511d565b6148af8185615188565b93506148ba836150dd565b8060005b838110156148eb5781516148d28882614828565b97506148dd83615154565b9250506001810190506148be565b5085935050505092915050565b600061490382615128565b61490d8185615199565b93508360208202850161491f856150ed565b8060005b8581101561495b578484038952815161493c8582614840565b945061494783615161565b925060208a01995050600181019050614923565b50829750879550505050505092915050565b600061497882615133565b61498281856151aa565b935083602082028501614994856150fd565b8060005b858110156149d057848403895281516149b18582614854565b94506149bc8361516e565b925060208a01995050600181019050614998565b50829750879550505050505092915050565b60006149ed8261513e565b6149f781856151bb565b935083602082028501614a098561510d565b8060005b85811015614a455784840389528151614a268582614868565b9450614a318361517b565b925060208a01995050600181019050614a0d565b50829750879550505050505092915050565b614a60816152e4565b82525050565b614a6f816152e4565b82525050565b6000614a8082615149565b614a8a81856151cc565b9350614a9a818560208601615329565b614aa381615495565b840191505092915050565b6000614ab982615149565b614ac381856151dd565b9350614ad3818560208601615329565b614adc81615495565b840191505092915050565b6000614af4602e836151dd565b9150614aff826154a6565b604082019050919050565b6000614b176027836151dd565b9150614b22826154f5565b604082019050919050565b6000614b3a6023836151dd565b9150614b4582615544565b604082019050919050565b6000614b5d6017836151dd565b9150614b6882615593565b602082019050919050565b6000614b806030836151dd565b9150614b8b826155bc565b604082019050919050565b6000614ba3603a836151dd565b9150614bae8261560b565b604082019050919050565b6000614bc66038836151dd565b9150614bd18261565a565b604082019050919050565b600061014083016000830151614bf56000860182614dba565b506020830151614c086020860182614dba565b5060408301518482036040860152614c208282614a75565b91505060608301518482036060860152614c3a8282614a75565b9150506080830151614c4f6080860182614dba565b5060a0830151614c6260a0860182614dba565b5060c0830151614c7560c0860182614dba565b5060e0830151614c8860e0860182614a57565b50610100830151614c9d610100860182614a57565b50610120830151614cb261012086018261487c565b508091505092915050565b600061014083016000830151614cd66000860182614dba565b5060208301518482036020860152614cee8282614a75565b91505060408301518482036040860152614d088282614a75565b91505060608301518482036060860152614d228282614a75565b91505060808301518482036080860152614d3c82826148f8565b91505060a0830151614d5160a0860182614a57565b5060c0830151614d6460c0860182614dba565b5060e083015184820360e0860152614d7c8282614a75565b915050610100830151614d9361010086018261487c565b50610120830151848203610120860152614dad828261489a565b9150508091505092915050565b614dc381615310565b82525050565b614dd281615310565b82525050565b60006020820190508181036000830152614df2818461496d565b905092915050565b60006020820190508181036000830152614e1481846149e2565b905092915050565b60006020820190508181036000830152614e3581614ae7565b9050919050565b60006020820190508181036000830152614e5581614b0a565b9050919050565b60006020820190508181036000830152614e7581614b2d565b9050919050565b60006020820190508181036000830152614e9581614b50565b9050919050565b60006020820190508181036000830152614eb581614b73565b9050919050565b60006020820190508181036000830152614ed581614b96565b9050919050565b60006020820190508181036000830152614ef581614bb9565b9050919050565b6000602082019050614f116000830184614dc9565b92915050565b600061010082019050614f2d600083018b614dc9565b8181036020830152614f3f818a614aae565b90508181036040830152614f538189614aae565b90508181036060830152614f678188614aae565b9050614f766080830187614a66565b614f8360a0830186614dc9565b81810360c0830152614f958185614aae565b9050614fa460e083018461488b565b9998505050505050505050565b600061014082019050614fc7600083018d614dc9565b614fd4602083018c614dc9565b8181036040830152614fe6818b614aae565b90508181036060830152614ffa818a614aae565b90506150096080830189614dc9565b61501660a0830188614dc9565b61502360c0830187614dc9565b61503060e0830186614a66565b61503e610100830185614a66565b61504c61012083018461488b565b9b9a5050505050505050505050565b6000615065615076565b9050615071828261538e565b919050565b6000604051905090565b600067ffffffffffffffff82111561509b5761509a615466565b5b602082029050602081019050919050565b600067ffffffffffffffff8211156150c7576150c6615466565b5b6150d082615495565b9050602081019050919050565b6000819050602082019050919050565b6000819050602082019050919050565b6000819050602082019050919050565b6000819050602082019050919050565b600081519050919050565b600081519050919050565b600081519050919050565b600081519050919050565b600081519050919050565b6000602082019050919050565b6000602082019050919050565b6000602082019050919050565b6000602082019050919050565b600082825260208201905092915050565b600082825260208201905092915050565b600082825260208201905092915050565b600082825260208201905092915050565b600082825260208201905092915050565b600082825260208201905092915050565b60006151f982615310565b915061520483615310565b9250827fffffffffffffffffffffffffffffffffffffffffffffffffffffffffffffffff0382111561523957615238615408565b5b828201905092915050565b600061524f82615310565b915061525a83615310565b9250817fffffffffffffffffffffffffffffffffffffffffffffffffffffffffffffffff048311821515161561529357615292615408565b5b828202905092915050565b60006152a982615310565b91506152b483615310565b9250828210156152c7576152c6615408565b5b828203905092915050565b60006152dd826152f0565b9050919050565b60008115159050919050565b600073ffffffffffffffffffffffffffffffffffffffff82169050919050565b6000819050919050565b82818337600083830152505050565b60005b8381101561534757808201518184015260208101905061532c565b83811115615356576000848401525b50505050565b6000600282049050600182168061537457607f821691505b6020821081141561538857615387615437565b5b50919050565b61539782615495565b810181811067ffffffffffffffff821117156153b6576153b5615466565b5b80604052505050565b60006153ca82615310565b91507fffffffffffffffffffffffffffffffffffffffffffffffffffffffffffffffff8214156153fd576153fc615408565b5b600182019050919050565b7f4e487b7100000000000000000000000000000000000000000000000000000000600052601160045260246000fd5b7f4e487b7100000000000000000000000000000000000000000000000000000000600052602260045260246000fd5b7f4e487b7100000000000000000000000000000000000000000000000000000000600052604160045260246000fd5b6000601f19601f8301169050919050565b7f6e6f742074686520706572736f6e2077686f206f726967696e616c6c79206d6160008201527f64652074686520626f6f6b696e67000000000000000000000000000000000000602082015250565b7f626f6f6b696e672077697468207468697320494420697320616c72656164792060008201527f64656c6574656400000000000000000000000000000000000000000000000000602082015250565b7f70726f706572747920776974682074686973204944206973206e6f742061637460008201527f6976650000000000000000000000000000000000000000000000000000000000602082015250565b7f53656e7420696e73756666696369656e742066756e6473000000000000000000600082015250565b7f70726f7065727479206973206e6f7420617661696c61626c6520666f7220746860008201527f652073656c656374656420646174657300000000000000000000000000000000602082015250565b7f626f6f6b696e672068617320616c7265616479206265656e20636f6e6669726d60008201527f65642e2044656c657465206973206e6f7420706f737369626c65000000000000602082015250565b7f4e6f7420612070726f70657479206f776e657220616e642063616e6e6f74206d60008201527f61726b2070726f706572747920617320696e6163746976650000000000000000602082015250565b6156b281615310565b81146156bd57600080fd5b5056fea2646970667358221220a0879c9823783e671ac5af7761718e02c2dfa74047d750c2a0476106c20e106264736f6c63430008040033",
  "linkReferences": {},
  "deployedLinkReferences": {}
}